:020000040800F2
:10000000009E0020A9090008810700088307000856
:10001000870700088B0700088F0700080000000012
:10002000000000000000000000000000930700082E
:100030009507000800000000E7600108814F0008F4
:10004000C3090008C3090008C3090008AD0A010874
:10005000C3090008C3090008C3090008C309000850
:10006000C3090008C3090008C3090008C309000840
:10007000C3090008C3090008C3090008C309000830
:10008000C3090008C3090008C3090008C309000820
:1000900003F40008C3090008C3090008C3090008E5
:1000A000C3090008C3090008C3090008C309000800
:1000B000C3090008D137010877560108C3090008B1
:1000C000C3090008C3090008C3090008C3090008E0
:1000D000C3090008CB520008AD08010847290108F0
:1000E000C3090008C3090008C3090008C3090008C0
:1000F000C3090008C3090008C3090008C3090008B0
:10010000C309000839540108C3090008C3090008DD
:100110005B020108C3090008C3090008C3090008FD
:10012000C3090008C3090008C3090008C30900087F
:10013000C3090008C3090008C3090008C30900086F
:10014000C30900082DF40008C3090008C30900080A
:10015000C3090008C3090008C3090008C30900084F
:10016000C3090008C3090008C3090008C30900083F
:10017000C3090008C3090008C3090008C30900082F
:10018000C3090008C309000800F002F800F08AF86B
:100190000AA090E8000C82448344AAF10107DA45E2
:1001A00001D100F07FF8AFF2090EBAE80F0013F0AA
:1001B000010F18BFFB1A43F001031847D465010073
:1001C000F46501000A444FF0000C10F8013B13F0F5
:1001D000070408BF10F8014B1D1108BF10F8015BA0
:1001E000641E05D010F8016B641E01F8016BF9D193
:1001F00013F0080F1EBF10F8014BAD1C0C1B09D1EA
:100200006D1E58BF01F801CBFAD505E014F8016B5B
:1002100001F8016B6D1EF9D59142D6D370470000ED
:100220000023002400250026103A28BF78C1FBD8FF
:10023000520728BF30C148BF0B6070476E2915F0C8
:100240007783702915F04484692915F03783642970
:1002500015F03483752915F031836F2915F0DA8391
:10026000782915F028840368DB0928BF41F0800154
:10027000632915F04086732915F04586E32915F0AA
:100280006386002070471FB515F086FF15F002FF4A
:1002900004000020002115F069FF401C60601FBDB4
:1002A00010B510BD15F0D1FE1146FFF7ECFF00F0C0
:1002B0003BF915F0F3FE03B4FFF7F2FF03BC04F0C3
:1002C000F1FE00001CB510F075FE052269465003D2
:1002D00010F0BAFED4A015F06FFA002406E01DF865
:1002E0000410D4A015F068FA601C84B2052CF6DB6B
:1002F000D2A015F061FA9DF80000D14948709DF830
:10030000010088709DF80200C8709DF80300087114
:100310009DF8040048711CBD1FB50C21684615F0FE
:10032000BBF900208DF80C006946C6A015F044FA10
:100330001FBD0EB50126C74C40E002A800210B46A8
:100340000122CDE9001008460DF043F8C2480078BC
:1003500068B10A2010F011FF0522C049500310F0C7
:10036000CEFE0020BC490870BDA015F025FAC64895
:100370000078002822D02078FF2819D100250BE032
:10038000C248415D204603F0F9FE092801D000264D
:1003900004E0641C681CC5B20C2DF1DB00BF1EB16B
:1003A000BBA015F009FA06E0C0A015F005FA02E0BE
:1003B000C4A015F001FA0020B3490870BDE730B5BC
:1003C0008BB00446002500BF05F05CF80AAA0121A5
:1003D000084607F035F800BF00BF00BF05F08CF9F4
:1003E000054600BF00BFC0480078401CBE490870E9
:1003F00000BF00BF284605F083F900BF00BF00BF63
:100400000AA803210022CDE90512CDE90710104604
:100410004FF480711922B54BCDE90132CDE90310BB
:1004200004200023B24AB3A10090B5480BF036F87F
:100430000AA803210022CDE90512CDE907101046D4
:100440004FF480711922AF4BCDE90132CDE9031091
:1004500004200023AC4AADA10090AF480BF01EF879
:100460000AA803210022CDE90512CDE907101046A4
:100470004FF480711922A94BCDE90132CDE9031067
:1004800004200023A64AA7A10090A9480BF006F873
:100490000AA803210022CDE90512CDE90710104674
:1004A0004FF480711922A34BCDE90132CDE903103D
:1004B00004200023AFF285129FA10090A1480AF00A
:1004C000EDFF00BF00BF00BF05F016F9054600BFF5
:1004D00000BF85480078401E8349087008460078B0
:1004E000A0B999480088002809DD00BF00BF284650
:1004F00005F006F900BF00BF07F08BFB0DE000BF61
:1005000000BF284605F0FCF800BF06E000BF00BFB2
:10051000284605F0F5F800BF00BF00BF0AA900207B
:100520000BF010F90BB030BD30B58BB000240025B6
:10053000A82004F031FD4FF4A06000F055FA4FF40C
:10054000E13004F0BDFD10F075F8642004F07DFD8D
:100550007EA015F031F9FFF7DFFEFFF7B3FE0AA822
:1005600006F04DFD00BF00BF00BF05F0C5F8044612
:1005700000BF00BF5C480078401C5B49087000BFAA
:1005800000BF204605F0BCF800BF00BF00BF0AA8AE
:10059000032100220592CDE90621089010464FF470
:1005A00080711922714BCDE90132CDE9031003208E
:1005B0000023AFF2F5126EA1009070480AF06EFFB2
:1005C00000BF00BF00BF05F097F8044600BF00BFA2
:1005D00045480078401E4449087008460078A0B994
:1005E00059480088002809DD00BF00BF204605F0FB
:1005F00087F800BF00BF07F00CFB0DE000BF00BF95
:10060000204605F07DF800BF06E000BF00BF204691
:1006100005F076F800BF00BF00BF0AA806F0B0FFE3
:1006200000200BB030BD0000446576696365206929
:10063000643D200025303258000000000D0A000003
:10064000FC00002044657669636520534E3A2025FE
:10065000730D0A00F03F0008000000203200002067
:1006600073617665206465766963652069642073CB
:100670007563636573732C20706C6561736520729C
:1006800065626F6F740D0A0001000020244C002089
:10069000736176652064657669636520736E207387
:1006A0007563636573730D0A0000000073617665FE
:1006B0002064657669636520736E206661696C6588
:1006C000640D0A00706C6561736520657261736505
:1006D00020626F6F7420666C617368207365637449
:1006E0006F720D0A00000000B0000020F012002020
:1006F0006FE500087461736B33207461736B0000E5
:100700002C120020B41700202DF000087461736BC8
:1007100034207461736B0000F016002098420020B2
:1007200037F000087461736B3133207461736B00B0
:10073000D44100205C4700207461736B3134207415
:1007400061736B009846002074000020232323234C
:100750002320446576696365207374617465642E33
:100760002E2E2023232323230D0A0000A40400207F
:100770007374617274207461736B0000E003002075
:10078000704700BFFEE700BFFEE700BFFEE700BF07
:10079000FEE77047704700000CB500200190009004
:1007A0007648006840F480307449086000BF7348A0
:1007B000006800F4003000900198401C01900098FF
:1007C00018B90198B0F5A04FF1D16C48006800F459
:1007D000003010B10120009001E00020009000984E
:1007E000012846D165484030006840F08050634998
:1007F000403108606248006840F440406049086049
:100800005E48083000685D490831086008460068A5
:1008100040F4004008600846006840F4A0500860BA
:100820005848091F0860081F006840F08070091FC1
:10083000086000BF5148006800F000700028F9D03F
:1008400040F20570504908604C480830006820F0BC
:1008500003004A49083108600846006840F0020079
:10086000086000BF45480830006800F00C00082808
:10087000F8D10CBD10B54548006840F470004349FC
:1008800008603E48006840F001003C4908600020D4
:100890003A4908310860394800683D4908403749FD
:1008A00008603C48091D0860081F006820F480208B
:1008B000091F0860002031490C310860FFF76CFF08
:1008C0004FF0006031498039086010BD70B50020DC
:1008D0000022022300240221284D08352D6805F04E
:1008E0000C0020B1042806D0082834D107E02A4D96
:1008F0002A4E356033E02A4D284E35602FE01F4DDB
:100900002D1D2D68C5F380541C4D2D1D2D6805F03F
:100910003F0154B1224DB5FBF1F5184E361D366836
:10092000C6F3881605FB06F209E01B4DB5FBF1F591
:10093000124E361D3668C6F3881605FB06F20F4DBB
:100940002D1D2D68C5F301456D1C6B00B2FBF3F541
:10095000124E356003E0104D104E356000BF00BFF1
:10096000064D08352D68C5F303150E4E705D0B4D11
:100970002D68C540094E356070BD0000003802404A
:100980000070004008544007003C024088ED00E041
:10099000FFFFF6FE103000240024F40004000020C5
:1009A00000127A00080000200948804709480047E3
:1009B000FEE7FEE7FEE7FEE7FEE7FEE7FEE7FEE70F
:1009C000FEE7FEE704480549054A064B704700006C
:1009D000750800088901000800980020009E00208A
:1009E000009A0020009A002032490143324A1160E7
:1009F000704770B5002100230F22C4781CB32E4C21
:100A0000246804F4E064C4F5E064C4F30721C1F190
:100A10000404E3B20A4144789C40E1B28478144073
:100A200021430C07210E254C05786155047804F00C
:100A30001F050124AC4005786D11AD0005F1E025DE
:100A4000C5F8004109E0047804F01F050124AC401A
:100A50001B4D0678761145F8264070BD194A0A40AC
:100A60000243154B1B1F1A60704739B1124A121D01
:100A700012680243104B1B1D1A6006E00E4A121D3D
:100A8000126882430C4B1B1D1A607047042808D162
:100A90004FF0E021096941F004014FF0E0221161BB
:100AA00007E04FF0E021096921F004014FF0E02256
:100AB000116170470000FA050CED00E000E400E071
:100AC00080E100E080FFFF1F10B504469848844293
:100AD00008D10121084600F086FB0021012000F02A
:100AE00082FB76E09348844208D10121022000F085
:100AF0007AFB0021022000F076FB6AE08E488442F7
:100B000008D10121042000F06EFB0021042000F038
:100B10006AFB5EE08948844208D10121082000F088
:100B200062FB0021082000F05EFB52E08448844212
:100B300008D10121102000F056FB0021102000F008
:100B400052FB46E07F48844208D10121202000F07A
:100B50004AFB0021202000F046FB3AE07A4884421C
:100B600008D10121402000F03EFB0021402000F090
:100B70003AFB2EE07548844208D10121802000F024
:100B800032FB0021802000F02EFB22E070488442DE
:100B900008D10121801500F026FB0021A01500F0EE
:100BA00022FB16E06B48844208D10121401500F079
:100BB0001AFB0021601500F016FB0AE0664884422B
:100BC00007D10121001500F00EFB0021201500F0D7
:100BD0000AFB10BDF0B50A4600210023002400BF27
:100BE0003DE0012505FA01F3156805EA03049C427E
:100BF00034D105684F000326BE40B5430560157922
:100C00004E00B5400668354305601579012D02D0C8
:100C10001579022D16D185684F000326BE40B543D5
:100C2000856055794E00B5408668354385604568D6
:100C300001268E40B5434560456896798E40B6B230
:100C400035434560C5684F000326BE40B543C560C7
:100C5000D5794E00B540C6683543C560491C10299A
:100C6000BFD3F0BD4FF6FF710160002101714171EA
:100C70008171C171704708B54FF480320092009ABB
:100C80000A430092009AC261C161009AC261C269BE
:100C90000092C269009208BD0246002013690B4011
:100CA0000BB1012000E0002070470146086980B2C6
:100CB00070470246002053690B400BB1012000E051
:100CC000002070470146486980B270470183704731
:100CD000418370470AB1018300E04183704741615D
:100CE000704742694A4042617047F0B500230024D2
:100CF0004D07ED0E02FA05F3CE1000F1200555F870
:100D000026504E07F70E0F26BE40B543CF1000F118
:100D1000200646F82750CE1000F1200555F8265041
:100D200045EA0304CE1000F1200545F82640F0BD49
:100D3000000002400004024000080240000C024093
:100D4000001002400014024000180240001C024043
:100D5000002002400024024000280240F9480068B8
:100D600040F00100F74908600020F64908310860AA
:100D7000F4480068F4490840F2490860F348091D46
:100D80000860F348EF4984310860F0481038091DC5
:100D90000860EC48006820F48020EA4908600020E0
:100DA000E8490C310860E7498C3108607047002140
:100DB000E44A921C117011460870704710B5014644
:100DC0000022002300204A11012A02D1DD4C2368B1
:100DD00008E0022A03D1DB4C7034236802E0D94CCE
:100DE0007434236801F01F02012494401C400CB1AC
:100DF000012000E0002010BD38B500200090002444
:100E0000002500BF3120FFF7D9FF05460098401CA0
:100E100000900098B0F5A04F01D0002DF2D0312005
:100E2000FFF7CCFF08B1012400E00024204638BDC4
:100E300001460020C34A106820F0F80040EAC100D3
:100E400010607047C349086070470021BD4A703286
:100E500011701170012802D004280AD104E0012188
:100E6000B84A7032117005E00521B64A703211702F
:100E700000E000BF00BF7047B7490860704770B519
:100E8000049C41EA82150126C6EB530645EA064555
:100E9000054345EA0465AB4E361D356070BDAD496E
:100EA00008667047820142EA0172A64B84331A60D9
:100EB0007047A8498866704710B5830143EA01630B
:100EC00043EA02739F4C8834236010BDA149086730
:100ED0007047A049C864704702460020994B083308
:100EE000186820F0EC6042EA01031843954B083380
:100EF0001860704702460020924B0833186820F0B3
:100F0000784042EA010318438E4B0833186070475B
:100F1000014600208B4A0832106820F00300084385
:100F20001060704787480830006800F00C00704778
:100F300001460020834A0832106820F0F000084380
:100F400010607047014600207E4A0832106820F485
:100F5000E05008431060704701460020794A08328B
:100F6000106820F4604040EAC10010607047F0B59E
:100F7000002100220024022500260223714F083799
:100F80003F6807F00C0121B1042905D0082937D1A9
:100F900005E0724F076036E0714F076033E0694F3C
:100FA0003F1D3F68C7F38056664F3F1D3F6807F0FF
:100FB0003F036EB16A4FB7FBF3F7DFF888C10CF15E
:100FC000040CDCF800C0CCF3881C07FB0CF40CE02C
:100FD000624FB7FBF3F7DFF86CC10CF1040CDCF8DF
:100FE00000C0CCF3881C07FB0CF4564F3F1D3F6834
:100FF000C7F301477F1C7D00B4FBF5F7076002E0F3
:10100000564F076000BF00BF4E4F08373F6807F0DC
:10101000F0010909534F7A5C0768D7404760494F90
:1010200008373F6807F4E051890A4E4F7A5C4768F9
:10103000D7408760434F08373F6807F46041490B4A
:10104000484F7A5C4768D740C760F0BD002100F484
:101050004072B2F5407F0AD13A4A0832116821F451
:10106000F811414A02401143364A08321160354AAC
:1010700070321268C0F30B031A43324B70331A609C
:101080007047354944390860704733494039086032
:10109000704736490860704701460020294A8C3263
:1010A000106820F01F004A1E1043264A8C32106040
:1010B000704701460020234A8C32106820F4F85013
:1010C0004A1E40EA02201F4A8C32106070470146D7
:1010D00000201C4A8C32106820F440100843106035
:1010E000704701460020174A8C32106820F44000F7
:1010F00008431060704701460020124A8C32106885
:1011000020F4403008431060704719490860704768
:1011100039B10C4A3032126802430A4B30331A603C
:1011200006E0084A303212688243064B30331A60B8
:101130007047F9B1034A343212680243014B343329
:101140001A601CE000380240FFFFF6EA103000246D
:101150000030002000004742800E47420024F40087
:1011600000127A0018000020FFFCFF0F5C014742CC
:10117000E01147428F4A126882438E4B1A607047D3
:1011800039B18C4A121D126802438A4B1B1D1A602A
:1011900006E0884A121D12688243864B1B1D1A60A6
:1011A000704739B1834A0C3212680243814B0C33C9
:1011B0001A6006E07F4A0C32126882437D4B0C3382
:1011C0001A60704739B17B4A103212680243794B7A
:1011D00010331A6006E0774A103212688243754B6A
:1011E00010331A60704739B1724A243A12680243C8
:1011F000704B243B1A6006E06E4A243A1268824320
:101200006C4B243B1A60704739B16A4A203A126825
:101210000243684B203B1A6006E0664A203A126897
:101220008243644B203B1A60704739B1614A1C3AD3
:10123000126802435F4B1C3B1A6006E05D4A1C3A91
:10124000126882435B4B1C3B1A60704739B1594AA4
:10125000143A12680243574B143B1A6006E0554A91
:10126000143A12688243534B143B1A60704739B1E9
:10127000504A103A126802434E4B103B1A6006E087
:101280004C4A103A126882434A4B103B1A6070472E
:1012900039B1484A1C3212680243464B1C331A606B
:1012A00006E0444A1C3212688243424B1C331A60E7
:1012B000704739B13F4A2032126802433D4B203318
:1012C0001A6006E03B4A203212688243394B2033D1
:1012D0001A60704739B1374A243212680243354BDD
:1012E00024331A6006E0334A243212688243314BB9
:1012F00024331A60704739B12E4A2C3212680243E7
:101300002C4B2C331A6006E02A4A2C321268824396
:10131000284B2C331A60704739B1264A3032126894
:101320000243244B30331A6006E0224A30321268FE
:101330008243204B30331A607047012808D11D4981
:101340003C31096841F008011A4A3C32116007E05B
:1013500018493C31096821F00801164A3C321160F5
:10136000704739B1134A273A12780243114B273B91
:101370001A7006E00F4A273A127882430D4B273B3A
:101380001A7070470B484030006840F0807009497F
:1013900040310860704701460020064A283A12682A
:1013A0000A400AB1012000E00020704701492639B7
:1013B000087070473438024010B50446FA48844239
:1013C00008D101211020FFF752FF00211020FFF764
:1013D0004EFF57E0F548844209D101214804FFF748
:1013E00035FF00214FF40030FFF730FF4AE0F048AE
:1013F000844209D101218804FFF728FF00214FF41E
:101400008020FFF723FF3DE0EA48844209D1012113
:10141000C804FFF71BFF00214FF40020FFF716FF61
:1014200030E0E548844209D101210805FFF70EFFAD
:1014300000214FF48010FFF709FF23E0DF488442CA
:1014400008D101212020FFF712FF00212020FFF703
:101450000EFF17E0DA48844209D101218807FFF71F
:10146000F5FE00214FF08040FFF7F0FE0AE0D5487E
:10147000844207D101214005FFF7E8FE0021600505
:10148000FFF7E4FE10BD2DE9FF4705460E46002498
:10149000A14600BFA046B08900B100BF2C8A24F449
:1014A0004054F08804432C82AC8941F20C608443A0
:1014B000B08831890843718908430443AC81AC8A00
:1014C00024F44074B0890443AC826846FFF74FFDB2
:1014D000B548854202D0B948854202D1DDF80C906A
:1014E00001E0DDF80890A88900F4004040B109EB64
:1014F000C90000EB091031684900B0FBF1F707E0C3
:1015000009EBC90000EB091031688900B0FBF1F765
:101510006420B7FBF0F004012009642101FB10787E
:10152000A88900F4004040B1322000EBC800B0FBB5
:10153000F1F000F00700044308E0322000EB08104F
:101540006421B0FBF1F000F00F0004432C81BDE8F2
:10155000FF874FF41651016000218180C180018115
:101560000C21418100218181704710B50246002085
:10157000108A20F470600B884C8823438C882343A6
:10158000CC8823431843108210BD00210180418084
:101590008180C180704721B1828942F400528281EA
:1015A00004E082894DF6FF731A4082817047028BF6
:1015B00002F47F420283028B0A430283704721B107
:1015C000828942F40042828103E08289C2F30E02E2
:1015D0008281704721B1828A42F40062828204E0F3
:1015E000828A4FF2FF731A4082827047C1F3080269
:1015F0008280704701468888C0F308007047028ADD
:101600004FF6F0731A400282028A0A430282704740
:1016100021B1828942F00202828104E082894FF680
:10162000FD731A408281704782894FF2FF731A401E
:10163000828182890A4382817047028A4FF6DF7372
:101640001A400282028A0A430282704721B1028A4A
:1016500042F48042028204E0028A4BF6FF731A4091
:1016600002827047818941F001018181704721B177
:10167000828A42F00802828204E0828A4FF6F7737F
:101680001A4082827047028BD2B20283028B42EAF6
:1016900001220283704721B1828A42F020028282B5
:1016A00004E0828A4FF6DF731A408282704721B1CC
:1016B000828A42F01002828204E0828A4FF6EF733F
:1016C0001A4082827047828A4FF6FB731A408282E8
:1016D000828A0A438282704721B1828A42F00202E2
:1016E000828204E0828A4FF6FD731A40828270473C
:1016F0001AB1838A0B43838202E0838A8B438382FD
:101700007047F0B50346002400260025002040F66F
:101710006A17B94200D100BF1846C1F3421401F064
:101720001F06012707FA06F5012C01D10C3004E051
:10173000022C01D1103000E014301AB107682F4399
:10174000076002E00768AF430760F0BD0246002073
:10175000B1F5007F00D100BF13880B400BB1012011
:1017600000E00020704701F40072B2F5007F00D164
:1017700000BFCA430280704770B5024600240023B0
:101780000025002040F66A16B14200D100BFC1F327
:10179000421501F01F03012606FA03F3012D13D1B0
:1017A0009689334017E000000010014000440040DB
:1017B00000480040004C0040005000400014014030
:1017C00000780040007C0040022D02D1168A334090
:1017D00001E0968A33400C12012606FA04F41688BA
:1017E000344013B10CB1012000E0002070BD10B5F1
:1017F0000022002340F66A14A14200D100BF0A1261
:1018000001249440A3B2DC43048010BD10B504460B
:10181000FE48844208D101210846FFF728FD002137
:101820000120FFF724FD9DE0B4F1804F08D1012194
:101830000846FFF70BFD00210120FFF707FD91E0AF
:10184000F348844208D101210220FFF7FFFC002168
:101850000220FFF7FBFC85E0EE48844208D101211D
:101860000420FFF7F3FC00210420FFF7EFFC79E0F0
:10187000E948844208D101210820FFF7E7FC002154
:101880000820FFF7E3FC6DE0E448844208D1012121
:101890001020FFF7DBFC00211020FFF7D7FC61E0F0
:1018A000DF48844208D101212020FFF7CFFC00212E
:1018B0002020FFF7CBFC55E0DA48844208D1012113
:1018C0000220FFF7D4FC00210220FFF7D0FC49E002
:1018D000D548844209D101210804FFF7C8FC002142
:1018E0004FF48030FFF7C3FC3CE0D048844209D17C
:1018F00001214804FFF7BBFC00214FF40030FFF743
:10190000B6FC2FE0CA48844209D101218804FFF7C0
:10191000AEFC00214FF48020FFF7A9FC22E0C5486F
:10192000844208D101214020FFF790FC0021402093
:10193000FFF78CFC16E0C048844208D101218020CA
:10194000FFF784FC00218020FFF780FC0AE0BB4801
:10195000844207D101218015FFF778FC0021A015F2
:10196000FFF774FC10BD00220288A84B98420ED0ED
:10197000AC4B98420BD0B0F1804F08D0A44B9842AA
:1019800005D0A44B984202D0A34B984204D14FF605
:101990008F731A404B881A43A04B984207D0A04B34
:1019A000984204D04FF6FF431A400B891A43028035
:1019B0004B68C3620B880385944B984202D0994BC5
:1019C000984201D18B7A03860123838270474FF0BE
:1019D000FF314160002101800181418081727047A7
:1019E0000185828270470A46002101884FF68F7375
:1019F000194011430180704741627047C1627047CE
:101A00000146486A70470146088D704721B1028837
:101A100042F00202028004E002884FF6FD731A4091
:101A20000280704721B1028842F00402028004E083
:101A300002884FF6FB731A400280704721B102887A
:101A400042F08002028004E002884FF67F731A4061
:101A50000280704702884FF6F7731A4002800288AE
:101A60000A430280704702884FF6FF431A40028003
:101A700002880A430280704721B1028842F00102C5
:101A8000028004E002884FF6FE731A40028070471D
:101A900070B5002400220023058C4FF6FE763540F9
:101AA0000584028C8388048B4FF68F752C40B51EFD
:101AB0002C400D882C43751E2A408D892A434D8861
:101AC0002A43524DA84202D0564DA84213D14FF698
:101AD000F7752A40CD892A434FF6FB752A408D8839
:101AE0002A434FF6FF652B404FF6FF552B400D8ADA
:101AF0002B434D8A2B43838004838D684563028486
:101B000070BD70B5002400220023058C4FF6EF76DF
:101B100035400584028C8388048B48F6FF752C4081
:101B20004FF6FF452C400D884FF6FF7606EA052557
:101B30002C434FF6DF752A408D8906EA05152A43A6
:101B40004D8806EA05152A43304DA84202D0354D8E
:101B5000A8421DD14FF67F752A40CD894FF6FF76FA
:101B600006EA05152A434FF6BF752A408D8806EA16
:101B700005152A434FF6FF352B404FF2FF752B40DA
:101B80000D8A06EA85052B434D8A06EA85052B4317
:101B9000838004838D688563028470BD70B50024E2
:101BA00000220023058C4FF6FF6635400584028C29
:101BB0008388848B4FF68F752C404FF6FC752C4034
:101BC0000D882C434FF6FF552A408D894FF6FF763E
:101BD00006EA05252A434D8806EA05252A430B4DCA
:101BE000A84202D00F4DA84238D14FF2FF752A40CB
:101BF000CD894FF6FF7606EA05252A434FF6FF35D5
:101C00002A408D8806EA05252A4319E00000014094
:101C10000004004000080040000C0040001000409C
:101C20000014004000040140004001400044014015
:101C30000048014000180040001C00400020004007
:101C40004EF6FF752B404DF6FF752B400D8A06EAC8
:101C500005152B434D8A06EA05152B4383808483A3
:101C60008D68C563028470BD70B500220023002416
:101C7000058C4EF6FF7635400584038C8488828B74
:101C800048F6FF752A404FF6FF452A400D884FF66B
:101C9000FF7606EA05252A434DF6FF752B408D8910
:101CA00006EA05352B434D8806EA05352B43FE4DE4
:101CB000A84202D0FD4DA84208D14BF6FF752C403A
:101CC0000D8A4FF6FF7606EA85152C4384808283C1
:101CD0008D680564038470BD00210180418081808E
:101CE00081608181C18101824182704770B5034664
:101CF000002000241846183001258D40ACB21D8C00
:101D0000A5431D8409B108290AD100EB61000568CB
:101D10004FF68F76354005600568154305600FE086
:101D20000D1FC5F34E052844056848F6FF7635407B
:101D3000056005684FF6FF7606EA02263543056022
:101D400070BD4163704781637047C1637047016430
:101D500070470A460021018B4FF68F7319401143DB
:101D6000018370470A460021018B48F6FF73194032
:101D70004FF6FF7303EA02231943018370470A46B3
:101D80000021818B4FF68F73194011438183704777
:101D90000A460021818B48F6FF7319404FF6FF7306
:101DA00003EA02231943818370470A460021018B0D
:101DB0004FF6F77319401143018370470A4600211B
:101DC000018B4FF2FF7319404FF6FF7303EA0223B2
:101DD0001943018370470A460021818B4FF6F77340
:101DE00019401143818370470A460021818B4FF2CD
:101DF000FF7319404FF6FF7303EA022319438183EF
:101E000070470A460021018B4FF6FB7319401143BE
:101E1000018370470A460021018B4FF6FF331940BA
:101E20004FF6FF7303EA02231943018370470A4602
:101E30000021818B4FF6FB7319401143818370475A
:101E40000A460021818B4FF6FF3319404FF6FF738E
:101E500003EA02231943818370470A460021018B5C
:101E60004FF67F7319401143018370470A460021E2
:101E7000018BC1F30E014FF6FF7303EA02231943EE
:101E8000018370470A460021818B4FF67F7319400A
:101E90001143818370470A460021818BC1F30E01F3
:101EA0004FF6FF7303EA02231943818370470A4602
:101EB0000021018C4FF6FD731940114301847047D6
:101EC0000A460021018C4FF6F77319401143018433
:101ED00070470A460021018C4FF6DF7319404FF618
:101EE000FF7303EA02131943018470470A46002175
:101EF000018C4FF67F7319404FF6FF7303EA02130C
:101F00001943018470470A460021018C4FF6FF53A4
:101F100019404FF6FF7303EA022319430184704707
:101F20000A460021018C4FF2FF7319404FF6FF73F0
:101F300003EA02231943018470470A460021018CF9
:101F40004DF6FF7319404FF6FF7303EA023319434E
:101F50000184704730B5002301248C40A3B2048C67
:101F60009C430484048C02FA01F5ADB22C43048432
:101F700030BD30B5002304248C40A3B2048C9C43B4
:101F80000484048C02FA01F5ADB22C43048430BD04
:101F9000828B4FF2FF331A408283828B4FF6FF739E
:101FA00003EA01231A4382837047F0B50C461546B5
:101FB000002100220026078C4EF6FF7C07EA0C0762
:101FC0000784818B028C4FF6FF7707EA043640F6D0
:101FD000FF4739404FF6FF7707EA052739434FF6A9
:101FE000FF7707EA0337394345F6FF773A4046F46F
:101FF00080573A4381830284F0BD828B4FF6F3739E
:102000001A408283828B0A4382837047F0B50C4664
:102010001546002100220026078C4FF6FF6C07EAC8
:102020000C070784818B028C4FF6FF7707EA0426A2
:102030004FF60C7739404FF6FF7707EA03172F4327
:1020400039434FF2FF573A4046F480773A43818351
:102050000284F0BD028B4FF2FF331A400283028BE1
:102060004FF6FF7303EA01231A4302837047F0B56A
:102070000C461546002100220026078C4FF6EF7C07
:1020800007EA0C070784018B028C4FF6FF7707EAFB
:10209000041640F6FF4739404FF6FF7707EA03374B
:1020A00039434FF6FF7703E0000001400004014090
:1020B00007EA052739434FF65F773A4046F01007A5
:1020C0003A4301830284F0BD028B4FF6F3731A404A
:1020D0000283028B0A4302837047F0B50C46154613
:1020E00000210022068C4FF6FE773E400684018BCD
:1020F000028C4FF60C7631407E1C06EA03162E4306
:1021000031434FF6F576324044F001063243018305
:102110000284F0BD70B505460C46208850B923896D
:10212000A28861882846FFF7D8FFE1882846FFF794
:10213000CBFF25E0208804280AD12389A288618862
:102140002846FFF794FFE1882846FFF783FF17E052
:10215000208808280AD12389A28861882846FFF7A9
:1021600055FFE1882846FFF748FF09E02389A28848
:1021700061882846FFF719FFE1882846FFF708FF26
:1021800070BD002101804180012181800021C1803A
:10219000018170472DE9F04105460C4600260127D4
:1021A000608808B9022600E00026A088012801D135
:1021B000022700E001272088A0B92389A28861882E
:1021C0002846FFF78AFFE1882846FFF77DFF23892D
:1021D0003A4631462846FFF74AFFE1882846FFF78E
:1021E00039FF13E02389A28861882846FFF73FFF63
:1021F000E1882846FFF72EFF23893A4631462846D4
:10220000FFF76BFFE1882846FFF75EFFBDE8F0812E
:102210000146486B70470146886B70470146C86BA2
:1022200070470146086C70470A884B881A438B88B0
:102230001A43CB881A430B891A434B891A438B895B
:102240001A43A0F84420704700210180418081801A
:10225000C180018141818181704731B1B0F8442052
:1022600042F40042A0F8442005E0B0F84420C2F354
:102270000E02A0F84420704721B1828842F0040287
:10228000828004E082884FF6FB731A408280704798
:1022900021B1828842F00102828004E082884FF6F8
:1022A000FE731A40828070471AB183890B43838181
:1022B00002E083898B4383817047818270470246A5
:1022C0000020138A0B400BB1012000E00020704772
:1022D000CA430282704730B5024600200023002422
:1022E000158A05EA0103958905EA010413B10CB1C9
:1022F000012000E0002030BDCA430282704741EA5D
:102300000203A0F8483070471AB183890B438381D8
:1023100002E083898B438381704721B1828842F038
:102320000802828004E082884FF6F7731A408280A8
:10233000704701894FF6F8721140018170470A46D3
:10234000002101894FF68F731940114301817047B5
:1023500030B504460D4629462046FFF7F0FF208998
:1023600040F00700208130BD2DE9F04104460D46C4
:1023700016461F46602D06D13B46012231462046B7
:10238000FFF775FE05E03B46012231462046FFF788
:10239000A4FE29462046FFF7D2FF208940F007001F
:1023A0002081BDE8F08130B50C4600210189C9B219
:1023B0004FF6FF7505EA032515432543294301819F
:1023C00030BD2DE9F04105460E46174698460024DB
:1023D00043463A4631462846FFF7E5FF2C894FF63B
:1023E000F870044044F007044FF68F70044044F046
:1023F00070042C81BDE8F081F0B504460D46164608
:102400001F463B46324629462046FFF7CCFF20892F
:1024100040F480402081F0BD82884FF68F731A40CF
:10242000828082880A438280704702894FF6F8735F
:102430001A40028102890A430281704702894FF6DD
:102440007F731A40028102890A4302817047F0B506
:102450000C4615461E460021002200230189028BEE
:10246000038C4FF6F877394021434FF6FC473A404A
:1024700040F201173A434FF6DD773B404FF6FF77C6
:1024800007EA06172F433B43018102830384F0BD13
:1024900021B1828842F08002828004E082884FF677
:1024A0007F731A4082807047A0F850107047000078
:1024B00010B50446FE48844209D101214806FEF7C2
:1024C000C5FE00214FF00070FEF7C0FE08E00121BC
:1024D0008806FEF7BBFE00214FF08060FEF7B6FED7
:1024E00010BD30B5024600200023146824F0020419
:1024F0001460146844F00104146000E05B1C54682C
:1025000004F001041CB94FF6FF74A342F6D15468DD
:1025100004F001040CB900206CE08C79012C04D18A
:10252000146844F08004146003E0146824F080040C
:102530001460CC79012C04D1146844F04004146078
:1025400003E0146824F0400414600C7A012C04D1D8
:10255000146844F02004146003E0146824F020049C
:1025600014604C7A012C04D1146844F010041460F7
:1025700003E0146824F0100414608C7A012C04D158
:10258000146844F00804146003E0146824F008049C
:102590001460CC7A012C04D1146844F00404146053
:1025A00003E0146824F0040414608C78A407CD7848
:1025B00044EA05640D7944EA05444D7944EA05543A
:1025C0000D886D1E2C43D461146824F0010414603E
:1025D000002300E05B1C546804F001041CB14FF6BA
:1025E000FF74A342F6D1546804F001040CB100203A
:1025F00000E0012030BD10B50021837A012202FAEB
:1026000003F1AC4A126842F00102AA4B1A60A94ACF
:102610001C3212688A43A74B1C331A60027BCAB96A
:10262000A44A0C3212688A43A24B0C331A604288C7
:10263000C38842EA03439F4A4032847A42F83430E6
:102640000288838842EA03439A4A4032847A02EB42
:10265000C4025360027B012A19D1964A0C321268D7
:102660000A43944B0C331A604288038842EA0343BE
:10267000904A4032847A42F83430C288838842EAF1
:1026800003438C4A4032847A02EBC4025360C27A1C
:102690003AB9884A121D12688A43864B1B1D1A607C
:1026A00006E0844A121D12680A43824B1B1D1A6001
:1026B000028932B97F4A143212688A437D4B14333F
:1026C0001A600289012A06D17A4A143212680A4332
:1026D000784B14331A60427B012A06D1754A1C32AA
:1026E00012680A43734B1C331A60724A126822F054
:1026F0000102704B1A6010BD00218171C17101721D
:1027000041728172C1728170C17003210171022115
:1027100041710121018070476649096841F001015A
:10272000644A11601146096843F60E729143614A8A
:1027300011601146096841EA0021116011460968DB
:1027400021F001011160704721B1026842F480322A
:10275000026003E0026822F4803202607047E1B157
:10276000026842F0800202604FF4C272125842F4D2
:1027700080734FF4C27213504FF4CA72125842F46D
:1027800080734FF4CA7213504FF4D272125842F44D
:1027900080734FF4D27213501BE0026822F0800263
:1027A00002604FF4C272125822F480734FF4C27266
:1027B00013504FF4CA72125822F480734FF4CA7245
:1027C00013504FF4D272125822F480734FF4D27225
:1027D0001350704710B502460020936803F08063E1
:1027E000B3F1806F00D110E0936803F00063B3F1A0
:1027F000006F01D1012008E0936803F08053B3F12A
:10280000805F01D1022000E00420042879D002F585
:10281000C07303EB00131B6803F0010402F5C073DF
:1028200003EB00131C600B7A7BB94B7A0C8843EAEC
:10283000445302F5C07404EB00142468234302F5EA
:10284000C07404EB0014236010E00B7A4C6843EA78
:10285000C4034C7A234302F5C07404EB00142468CB
:10286000234302F5C07404EB001423608B7A03F059
:102870000F038B7202F5C07303EB00135B6823F048
:102880000F0402F5C07303EB00135C6002F5C07324
:1028900003EB00135B688C7A234302F5C07404EBEE
:1028A000001463608B7B1C064B7B44EA034403E00B
:1028B00000640040006600400B7B44EA0323CC7AAE
:1028C000234302F5C07404EB0014A3608B7C1C0648
:1028D0004B7C44EA03440B7C44EA0323CC7B234334
:1028E00002F5C07404EB0014E36002F5C07303EB5F
:1028F00000131B6843F0010402F5C07303EB0013DF
:102900001C6010BD10B50246002321B1012907D07B
:1029100002290FD109E09068F94C00EA04030BE0AA
:102920009068F84C00EA040306E09068F64C00EA70
:10293000040301E0002300BF00BFF44C181BA342B6
:1029400016D007DC83B16FF08060184470B10228A4
:1029500018D111E0B0F5007F10D0ED4C204448B103
:10296000B0F5003F0ED10BE002230DE000230BE099
:10297000002309E0002307E0012305E0012303E031
:10298000012301E0002300BF00BFD8B210BD21B178
:10299000012907D002290FD109E0826842F08002A4
:1029A00082600AE0826842F40042826005E0826848
:1029B00042F40002826000E000BF00BF704710B523
:1029C00000F5D87303EB01131B6803F004031372C3
:1029D000137A53B900F5D87303EB01131B6840F267
:1029E000FF7404EA5353136009E000F5D87303EB56
:1029F00001131B686FF0604404EAD303536000F5D1
:102A0000D87303EB01131B6803F00203537200F544
:102A1000D87303EB01135B6803F00F03937200F5A7
:102A2000D87303EB01135B681B0AD37400F5D873EA
:102A300003EB01139B68D37200F5D87303EB01130A
:102A40009B681C0A147300F5D87303EB01139B6891
:102A50001C0C547300F5D87303EB01139B681B0E19
:102A6000937300F5D87303EB0113DB68D37300F5A0
:102A7000D87303EB0113DB681C0A147400F5D873D8
:102A800003EB0113DB681C0C547400F5D87303EBE3
:102A90000113DB681B0E937421B9C36843F0200354
:102AA000C36003E0036943F02003036110BD21B953
:102AB000C26842F02002C26003E0026942F02002D4
:102AC000026170470246002019B9D36803F0030081
:102AD00006E0012903D1136903F0030000E00020A0
:102AE000704710B502460B4600204FF6FF71BBB988
:102AF000146824F0020444F00104146000E0491E4C
:102B0000546804F00304012C01D00029F7D1546863
:102B100004F00304012C01D0002032E0012030E059
:102B2000012B13D1146824F00304146000E0491E43
:102B3000546804F003040CB10029F8D1546804F07F
:102B400003040CB100201CE001201AE0022B17D175
:102B5000146824F0010444F00204146000E0491EEB
:102B6000546804F00304022C01D00029F7D1546802
:102B700004F00304022C01D0002002E0012000E058
:102B8000002010BD014600200A6822F0010242F038
:102B900002020A604A6802F00302022A00D1012000
:102BA000704701464FF6FF7200200B6823F00203C6
:102BB0000B6000E0521E4B6803F00203022B01D1B0
:102BC000002AF7D14B6803F00203022B00D001204A
:102BD0007047014600208A6902F070007047014684
:102BE00000208A69100E7047014600208A69C2F3EE
:102BF000074070471AB143690B43436102E04369E0
:102C00008B434361704710B50246002001F4700306
:102C100043B19369C1F3130423400BB101202DE0AC
:102C200000202BE001F0807343B15368C1F313041B
:102C300023400BB1012021E000201FE001F00063E0
:102C400043B19368C1F3130423400BB1012015E095
:102C5000002013E001F0007343B1D368C1F3130403
:102C600023400BB1012009E0002007E01369C1F304
:102C7000130423400BB1012000E0002010BD00220E
:102C8000244B994202D10023836111E0C1F3130266
:102C900001F000730BB1C2600AE001F080630BB178
:102CA000026105E001F000630BB1826000E0426068
:102CB00070470246002002EA01030BB1012000E048
:102CC0000020704770B504460D4600266069284014
:102CD000002872D0B5F5807F69D01DDC082D42D068
:102CE00006DC012D2DD0022D31D0042D7FD134E012
:102CF000102D3ED0202D42D0402D78D145E000004F
:102D00000300000400030008000003100001000895
:102D10000001FFF77000F030B5F5004F61D009DC1D
:102D2000B5F5007F4AD0B5F5806F4DD0B5F5006F91
:102D30005DD150E0B5F5803F2DD0B5F5003F56D1BF
:102D40002FE0A0685549FFF7B4FF064651E0E06860
:102D50000321FFF7AEFF06464BE0E0680821FFF7CE
:102D6000A8FF064645E0E0681021FFF7A2FF0646EF
:102D70003FE020690321FFF79CFF064639E0206908
:102D80000821FFF796FF064633E020691021FFF780
:102D900090FF06462DE060680821FFF78AFF06468F
:102DA00027E060681021FFF784FF064621E0A06954
:102DB0000121FFF77EFF06461BE01BE0A069022110
:102DC000FFF777FF064614E0A0690421FFF771FFC3
:102DD00006460EE00BE0A0697021FFF76AFF064689
:102DE00007E060680421FFF764FF064601E0002663
:102DF00000BF00E00026304670BDB1F5007F3AD03C
:102E00000FDC202928D006DC01291CD004291DD084
:102E1000082940D11DE0402921D0B1F5807F3AD169
:102E200026E0B1F5004F31D006DCB1F5806F25D03A
:102E3000B1F5006F2FD124E0B1F5803F12D0B1F58C
:102E4000003F28D111E0154A826025E00822C260C7
:102E500022E01022C2601FE0082202611CE0102262
:102E6000026119E00822426016E01022426013E07D
:102E70000422426010E0042242600DE0042242601D
:102E80000AE0002282610422426005E000228261A1
:102E90000422426000E000BF00BF70470101010052
:102EA00008B50022009200200021CA22F94B1A60C6
:102EB00053221A60F74A183A126822F0A002F54B22
:102EC000183B1A6000BFF34A183A126802F020015A
:102ED000009A521C0092009AB2F5003F01D00029DE
:102EE000F1D0EC4A183A126802F020020AB101202F
:102EF00000E00020FF22E74B1A6008BD08B5002261
:102F0000009200200021E34A183A126802F04002C1
:102F1000E2B9421EDF4B183B1A6000BFDD4A183A87
:102F2000126802F04001009A521C0092009AB2F519
:102F3000803F01D00029F1D0D64A183A126802F039
:102F400040020AB1012002E0002000E0012008BD9B
:102F500038B50020009000240025CA20CD49086023
:102F600053200860FFF7CAFF00B952E00020C949AA
:102F70002439086042F20110091D0860081D00682C
:102F800000F00700091D086000BFC248183800683B
:102F900000F004040098401C00900098B0F5803FB9
:102FA00001D0002CF1D0BB481838006800F00400B4
:102FB00008B900252DE0B7481C3800680020B54945
:102FC0001C3908604FF6FF70B24910390860B248EA
:102FD000091F08600020AF490C390860091D08600E
:102FE000091D0860AB4908310860AA49183108601A
:102FF000A84920310860091D0860A64918390860F1
:10300000A4491C310860FFF74BFF08B9002500E018
:103010000125FF209F490860284638BD9D48183883
:10302000006820F080009B4918390860704730B56F
:1030300004460025CA209749086053200860FFF71E
:103040005DFF00B91DE093481C38006820F0400087
:1030500090491C39086008460068216808438D497A
:103060001C3908608B491439A0680860084600685C
:10307000A18840EA0140874914390860FFF7CEFF74
:103080000125FF2083490860284630BD00210160EA
:103090007F214160FF218160704718B1FF217D4A87
:1030A000116004E0CA217B4A11605321116070470E
:1030B00030B504460025CA207649086053200860D0
:1030C000FFF71CFF00B914E044B172481C380068D7
:1030D00040F010006F491C39086007E06D481C384B
:1030E000006820F010006B491C390860FFF796FF5C
:1030F0000125FF2067490860284630BDCA21654A7E
:1031000011605321116040B162491C39096841F0D6
:103110002001604A1C3A116007E05E491C390968C9
:1031200001F0DF015B4A1C3A1160FF21594A11602E
:1031300070470146002204E0501CC2B2A1F10A000F
:10314000C1B20A29F8DA100741EA10607047014657
:1031500000BF080900EB8000420001F00F0010449E
:10316000C0B270472DE9F04105460C460026002705
:1031700055B948481C38006800F0400000B102E032
:103180000020E07000BF0EE042481C38006800F0EC
:10319000400020B12078FFF7DAFF064602E0002069
:1031A000E07000BF00BF55B120780004617840EAAC
:1031B0000120A1780843E17840EA014611E0207837
:1031C000FFF7B7FF4FEA00486078FFF7B2FF48EA21
:1031D0000028A078FFF7ADFF48EA0008E07848EA49
:1031E0000046CA202B49086053200860FFF786FE7E
:1031F00008B9002714E029483040264924390860DE
:10320000FFF70CFF23481C38006800F0200030B99D
:10321000FFF746FE08B9002702E0012700E001277A
:10322000FF201C4908603846BDE8F0810021C170CC
:10323000017041708170704770B506460C460025DC
:10324000144824380068154900EA0105C5F3054013
:103250002070C5F30620607005F07F00A07005F4B3
:103260008000000CE0705EB92078FFF770FF2070DE
:103270006078FFF76CFF6070A078FFF768FFA070C0
:1032800070BD00200349091D0868024920390968FA
:103290007047000024280040FF007F007F7F7F00F0
:1032A0002DE9F04105460C46002600274DB960780F
:1032B00000F01000102804D1607820F010000A30CF
:1032C000607005B908E06078FFF741FF0646A07816
:1032D000FFF73DFF064600BF55B1E0780004617876
:1032E00040EA0120A1780843217840EA413611E004
:1032F000E078FFF71EFF4FEA00486078FFF719FFFC
:1033000048EA0028A078FFF714FF48EA0008207870
:1033100048EA4036CA20FE49086053200860FFF79B
:10332000EDFD08B9002714E0FA483040F84920398B
:103330000860FFF773FEF6481C38006800F02000B4
:1033400030B9FFF7ADFD08B9002702E0012700E022
:103350000127FF20EE4908603846BDE8F0810121D1
:103360000170817041700021C170704770B50646D0
:103370000C460025E64820380068E64900EA0105C9
:10338000280CE070C5F30420607005F03F00A070C9
:10339000C5F3423020705EB9E078FFF7D8FEE070E8
:1033A0006078FFF7D4FE6070A078FFF7D0FEA070C1
:1033B00070BD2DE9F04105460E46144600276DB953
:1033C000D3481C38006800F0400000B102E0002043
:1033D000E07000BFA06800B91AE019E0CC481C38C2
:1033E000006800F0400020B12078FFF7B0FE0746EB
:1033F00002E00020E07000BFA06820B9207BFFF74A
:10340000A6FE074604E0207BFFF7A1FE074600BFAB
:1034100095B120780004617840EA0120A178084342
:10342000E17840EA0140217B40EA0160A16808435D
:10343000616840EA01071BE02078FFF77AFE4FEA57
:1034400000486078FFF775FE48EA0028A078FFF78B
:1034500070FE48EA0008E07848EA0048207BFFF761
:1034600068FE48EA0060A1680843616840EA010715
:10347000CA20A749086053200860B6F5807F03D1B1
:10348000A3480838076002E0A148001F0760FF203A
:103490009F490860BDE8F0810021C1700170417052
:1034A00081708160012101730021416070472DE925
:1034B000F04106460F4614460025B7F5807F03D13C
:1034C00093480838056802E09148001F0568C5F375
:1034D00005402070C5F30620607005F07F00A070E5
:1034E00005F48000000CE070C5F30560207305F062
:1034F0008040A06005F0803060607EB92078FFF7E2
:1035000026FE20706078FFF722FE6070A078FFF73B
:103510001EFEA070207BFFF71AFE2073BDE8F0812D
:1035200038B502460024009400230020CA24784DB8
:103530002C6053242C6041B1754C1C3C246814430E
:10354000734D1C3D2C6001201EE0714C1C3C246816
:1035500094436F4D1C3D2C6000BF6D4C183C24689B
:1035600004EA1223009C641C0094009CB4F5803F84
:1035700001D0002BF1D0664C183C246804EA1224D8
:103580000CB9002000E00120FF24614D2C6038BD03
:1035900030B50023CA245E4D2C6053242C6041EAD0
:1035A0000203B0F5807F03D1594C2034236002E040
:1035B000574C24342360FF24554D2C6030BD014608
:1035C0000020B1F5807F05D1514A20321268C2F344
:1035D0000E0004E04E4A24321268C2F30E00704717
:1035E000CA214B4A11605321116049491C390968AD
:1035F00021F00701464A1C3A11601146096801434F
:103600001160FF21424A11607047CA21404A11608F
:10361000532111603E4910390860FF211160704745
:103620003B481038006880B2704718B50146002347
:10363000009300220020CA23354C236053232360CB
:1036400049B1334B1C3B1B6843F48063304C1C3C3A
:10365000236001201FE02E4B1C3B1B6823F480637A
:103660002B4C1C3C236000BF294B183B1B6803F00C
:103670000402009B5B1C0093009BB3F5803F01D0CC
:10368000002AF1D0224B183B1B6803F004030BB94E
:10369000002000E00120FF231D4C236018BDCA223A
:1036A0001B4B1A6053221A60194A1C3A126822F402
:1036B0008022174B1C3B1A601A46126840EA01032D
:1036C0001A43134B1C3B1A60FF22114B1A607047C0
:1036D0000F481C38006800F480207047CA220C4B49
:1036E0001A6053221A600A4A1C3A126822F4E00255
:1036F000074B1C3B1A601A46126840EA01031A4342
:10370000034B1C3B1A60FF22014B1A6070470000FC
:10371000242800403FFFFF0070B504460D460026F8
:10372000CA20F649086053200860FFF7E7FB00B99C
:1037300007E044EA0500F1490C390860FFF76EFC28
:103740000126FF20ED490860304670BD30B50446C3
:103750000025CA20E949086053200860FFF7CEFB26
:1037600000B914E044B1E5481C38006840F080001E
:10377000E2491C39086007E0E0481C38006820F086
:103780008000DE491C390860FFF748FC0125FF2056
:10379000DA490860284630BDCA21D84A1160532151
:1037A000116040B1D5491C39096841F40001D34A80
:1037B0001C3A116007E0D1491C39096821F4000165
:1037C000CE4A1C3A1160FF21CC4A11607047CA21D1
:1037D000CA4A116053211160C8491C39096821F493
:1037E0000021C64A1C3A1160114609680143116064
:1037F000FF21C24A1160704770B5034600200024C3
:10380000CA25BE4E356053253560BC4D183D2D6828
:1038100005F4803555B100E0641CB84D183D2D68A5
:1038200005F4803515B1B4F5003FF5D1B34D183D21
:103830002D6805F480353DB943EA01051543AF4EC7
:1038400018363560012000E00020FF25AB4E3560C2
:1038500070BD10B50A460021A84B1C3B1B6840F602
:10386000080423EA04011AB140F40063194300E09C
:103870000143CA23A14C2360532323609F4B1C3B6D
:103880001960FF23236010BD2DE9F04180460C46EE
:1038900015460026002799480C300068984900EA30
:1038A0000106964810300068964900EA0107C6F301
:1038B00005402070C6F30620607006F07F00A070FF
:1038C00006F48000000CE0700020E870C7F30420CC
:1038D000687007F03F00A870C7F342302870B8F155
:1038E000000F17D12078FFF732FC20706078FFF7C7
:1038F0002EFC6070A078FFF72AFCA0706878FFF7B4
:1039000026FC6870A878FFF722FCA8702878FFF7DB
:103910001EFC2870BDE8F0817848143000687047BC
:1039200041B9764A1C32126822EA4002734B1C33BA
:103930001A6007E0714A1C32126842EA40026F4B7B
:103940001C331A60704739B16C4A1C32126802434A
:103950006A4B1C331A6006E0684A1C3212688243C4
:10396000664B1C331A60704764491C31096821F4A6
:10397000C051624A1C32116011460968014311604E
:1039800070475E491C31096821F4E0615B4A1C32D2
:1039900011601146096801431160704757491C3195
:1039A000096821F4C041554A1C321160114609686A
:1039B00001431160704740B150491C31096841F022
:1039C00080014E4A1C32116007E04C491C310968E5
:1039D00021F08001494A1C321160704740B14749CB
:1039E0001C31096821F40041444A1C32116007E08F
:1039F00042491C31096841F40041404A1C321160BF
:103A0000704708B5002200923C4A2C320092009A7E
:103A100002EB80020092009A116008BD08B50146D1
:103A20000020009035482C300090009800EB810079
:103A300000900098006808BD30491C31096821F4E5
:103A400080312E4A1C321160114609680143116011
:103A500070472A491C31096821F40031274A1C3279
:103A600011601146096801431160704723491C31F8
:103A7000096821F48021214A1C321160114609682D
:103A8000014311607047F0B504460D46002700263B
:103A9000CA201A490860532008601848183800687E
:103AA00000F0080050B100E0761C14481838006897
:103AB00000F0080010B1B6F5805FF5D10F48183856
:103AC000006800F0080098B90C481C38006800F045
:103AD000100058B945EA0400084908310860FFF7AA
:103AE000DFF908B9002704E0012702E0002700E021
:103AF0000027FF20014908603846F0BD2428004017
:103B00007F7F7F003FFFFF00CA223D4B1A60532298
:103B10001A6091B13A4A1C3A126820F004031A4321
:103B2000374B1C3B1A60364A1C32126800F0040303
:103B30001A43334B1C331A6011E0314A1C3A1268A5
:103B400020F004039A432E4B1C3B1A602C4A1C3273
:103B5000126800F004039A43294B1C331A60FF22B9
:103B6000274B1A60704710B5014600200022244BF5
:103B7000183B1B68234C03EA040202EA01030BB161
:103B8000012000E0002010BD81B241F080011C4AFC
:103B9000183A126802F0800262EA0101184A183AE3
:103BA0001160704730B50146002000220023144CFC
:103BB0001C34246804F00402114C1C3C24680C40A2
:103BC00002EAD13544EA05030D4C183C246804EAA6
:103BD00011121BB194B20CB1012000E0002030BDE5
:103BE000002101098AB242F08002054B183B1B6894
:103BF00003F0800363EA0202014B183B1A6070472E
:103C0000242800407F3F010010B501210807FDF77F
:103C10001DFB00214FF08050FDF718FB10BD5249ED
:103C20000862704701460020504A106820F0E0000A
:103C30000843106070474C49086170474A49A031F9
:103C4000086070474849A431086070470146002069
:103C5000464A106820F440400843106070474249CB
:103C60000864704740494864704730B13F4909686B
:103C700041F440213D4A116005E03C49096821F4C6
:103C800040213A4A1160704718B10121364AD16289
:103C900002E00021344AD162704718B10121324A52
:103CA000916202E00021304A916270472E494862D9
:103CB000704710B5024600202C4B186840F60343AD
:103CC00098431043294B1860294B1B6843F00403A9
:103CD000274C2360012901D130BF00E020BF244BD5
:103CE0001B6823F00403224C236010BD10B502466C
:103CF00000201E4B186840F60343984310431B4BAB
:103D000018601B4B1B6843F00403194C2360012906
:103D100001D130BF00E020BF154B1B6823F0040326
:103D2000134C236010BD1148006840F002000F4999
:103D300008600F48006840F004000D49086000BFAB
:103D400000BF30BF704701460020084A52680A4051
:103D50000AB1012000E0002070470449096841EAE7
:103D60008001024A1160704700000E42007000405E
:103D700010ED00E0FE4A1070704730B1FC49096850
:103D800041F48071FA4A116005E0F949096821F4AB
:103D90008071F74A1160704730B1F549096841F404
:103DA0000071F34A116005E0F149096821F40071DE
:103DB000EF4A1160704730B1ED49096841F4806104
:103DC000EB4A116005E0EA49096821F48061E84A9C
:103DD00011607047E648006840F40060E4490860FC
:103DE0007047E348006840F48050E149086070473C
:103DF000DF481030006800F0004028B1DD48DC49A1
:103E0000091D0860DC4808607047D9481030006818
:103E100040F00040D6491031086070470920D4496D
:103E20000C31096801F48031B1F5803F01D10120E6
:103E300020E0CF490C31096801F0100109B10620DA
:103E400018E0CB490C31096801F4807109B10220F6
:103E500010E0C7490C31096801F0EF0109B10720F2
:103E600008E0C3490C31096801F0020109B10820DA
:103E700000E00920704708B509200090FFF7CEFF49
:103E8000009002E0FFF7CAFF00909DF800000128B3
:103E9000F8D09DF8000008BD70B504460A4600261B
:103EA000092502B909E0012A01D1160205E0022A1A
:103EB00001D1160201E04FF44076FFF7DCFF054622
:103EC000092D2DD1AA481030006820F44070A8496F
:103ED00010310860084600683043086008460068F2
:103EE00020F0F80008600846006844F0020108432A
:103EF0009F49103108600846006840F4803008602F
:103F0000FFF7B9FF05469A481030006820F002001C
:103F10009749103108600846006820F0F8000860F2
:103F2000284670BD30B5024600250924FFF7A3FFDF
:103F3000044602B909E0012A01D1150205E0022A6E
:103F400001D1150201E04FF44075092C20D18848B9
:103F50001030006820F44070854910310860084630
:103F60000068284308600846006840F004000860C4
:103F70000846006840F480300860FFF77CFF044684
:103F80007B481030006820F0040079491031086047
:103F9000204630BD30B5024600250924FFF76BFFEF
:103FA000044602B909E0012A01D1150205E0022AFE
:103FB00001D1150201E04FF44075092C20D16C4865
:103FC0001030006820F440706949103108600846DC
:103FD0000068284308600846006840F00400086054
:103FE0000846006840F480300860FFF744FF04464C
:103FF0005F481030006820F004005D49103108600F
:10400000204630BD30B5024600250924FFF733FFB6
:10401000044602B909E0012A01D1150205E0022A8D
:1040200001D1150201E04FF44075092C20D1504810
:104030001030006820F440704D4910310860084687
:104040000068284308600846006840F400400860A3
:104050000846006840F480300860FFF70CFF044613
:1040600043481030006820F4004041491031086096
:10407000204630BD70B5064614461D460922FFF79E
:10408000FAFE0246092A1ED139481030006820F491
:1040900040703749103108600846006840F44070AD
:1040A00008600846006840F00100086034607560F0
:1040B000FFF7E1FE02462E481030006820F00100B4
:1040C0002B4910310860104670BD30B502460C46D1
:1040D0000925FFF7D0FE0546092D1DD124481030D3
:1040E000006820F4407022491031086008460068DA
:1040F00040F4007008600846006840F00100086065
:104100001460FFF7B8FE054619481030006820F02B
:104110000100174910310860284630BD30B502460D
:104120000C460925FFF7A7FE0546092D1DD11048AD
:104130001030006820F440700D49103108600846C6
:10414000006840F4807008600846006840F0010094
:1041500008601480FFF78FFE0546054810300068A0
:1041600020F00100024910310860284630BD0000EF
:10417000003C024023016745AB89EFCD30B50246D4
:104180000C460925FFF777FE0546092D17D19B48F8
:10419000006820F44070994908600846006808608B
:1041A0000846006840F0010008601470FFF763FEE5
:1041B00005469248006820F00100904908602846B2
:1041C00030BD8E48001D006800F0010028B18C4809
:1041D0008A49083908608B48086070478748001D85
:1041E000006840F001008549091D0860704730B53E
:1041F00002460C460925FFF73EFE0546092D10D163
:104200003CB17E48801D008890437C49891D088010
:1042100007E07A48801D008891B208437749891DDC
:10422000088030BD30B502460C460925FFF723FE55
:104230000546092D10D13CB170480A3000889043E2
:104240006E490A31088007E06C480A30008891B254
:1042500008436A490A31088030BDFF21674AD21DF0
:10426000127802F07F0140EA0102644BDB1D1A70F4
:10427000704730B502460C460925FFF7FCFD0546A0
:10428000092D10D144B15D48801D008891B20843CA
:104290005A49891D088006E05848801D00889043CF
:1042A0005649891D088030BD30B502460C460925A7
:1042B000FFF7E1FD0546092D10D144B14F480A3002
:1042C000008891B208434D490A31088006E04B4806
:1042D0000A300088904349490A31088030BD10B542
:1042E00002460924FFF7C7FD0446092C02D14348C2
:1042F000401D027010BDF0B504460D46FF2609278B
:10430000FFF7B9FD0746092F0BD13C48001D007887
:1043100000F00F0645EA0600104320433749091D07
:104320000870F0BD3549091D097821F01001334AA4
:10433000121D1170114609780143117070472F4901
:10434000091D097821F00C012C4A121D117011462B
:10435000097801431170704700B509222748001DF4
:10436000007840F002002549091D0870FFF783FD21
:104370000246104600BD2148001D0068C0F34710EA
:1043800070471E48801D008870471C480A3000880E
:1043900070471A48801D0088704718480A30008806
:1043A000704700201549491D0978AA2901D001202C
:1043B00000E0002070471148001D007800F00C005C
:1043C000704729B10D4A126802430C4B1A6004E091
:1043D0000A4A12688243094B1A607047014600205E
:1043E000064A121F12680A400AB1012000E00020AC
:1043F00070470249091F086070470000103C0240E6
:104400003B2A19087F6E5D4C10B50446FB48844278
:1044100008D101218014FCF72AFF0021A014FCF729
:1044200026FF3CE0F648844208D101210014FCF745
:104430000DFF00212014FCF709FF30E0F148844211
:1044400008D10121C013FCF701FF0021E013FCF7A4
:10445000FDFE24E0EC48844208D101214014FCF721
:1044600006FF00216014FCF702FF18E0E7488442D1
:1044700009D101210805FCF7FAFE00214FF4801054
:10448000FCF7F5FE0BE0E248844208D10121480523
:10449000FCF7EDFE00214FF40010FCF7E8FE10BD24
:1044A00010B50022028802F441520B884C88234345
:1044B0008C882343CC8823430C8923434C89234392
:1044C0008C892343CC8923431A430280838B4FF288
:1044D000FF74234083830B8A038210BD2DE9F04FC4
:1044E0000025022300244FF00109002200260027A6
:1044F00094469046B0F81CA04FF2400B0AEA0B0A13
:10450000A0F81CA04FF0020AA0F820A0858BD1F8DB
:1045100008A0BAF1020F01D100BF82E0B1F804A0F7
:10452000BAF1000F02D14FF0010901E04FF002098A
:10453000DFF8E0A2DAF800A00AF4000ABAF1000FEE
:1045400009D0DFF8D0A2DAF800A02AF4000ADFF8D8
:10455000C4B2CBF800A0DFF8BCA20AF17C0ADAF8FA
:1045600000A0CAF3881CDFF8ACA20AF17C0ADAF8D2
:1045700000A0CAF30278DFF89CA2AAF1040ADAF8D4
:1045800000A00AF03F07DFF88CA2AAF1040ADAF8CB
:1045900000A00AF4800ABAF5800F08D1DFF878A2EB
:1045A000BAFBF7FA0AFB0CFABAFBF8F607E0DFF8F9
:1045B0006CA2BAFBF7FA0AFB0CFABAFBF8F6B1F8F0
:1045C00006A0BAF5007F0ED14FEA162A0AEB8A0A36
:1045D0004FEA4A0AD1F808B0BAFBFBFA0AF1050A19
:1045E0001FFA8AF20FE04FEA491AB6FBFAFA0AEB11
:1045F0008A0A4FEA4A0AD1F808B0BAFBFBFA0AF174
:10460000050A1FFA8AF24FF00A0AB2FBFAF202F028
:104610000104A2EB040ACAF34F034FF6FF7A0AEA39
:104620000424022B01DBFF2B01DD02230024B1F85F
:1046300006A04AEA040A4AEA030AA0F820A0B1F850
:1046400004A0B1F80CB04AEA0B0AB1F802B04AEA89
:104650000B0AB1F800B04AEA0B0A4AF4006A4AEAC7
:1046600005058583BDE8F08F0021018041808180B0
:10467000C180018141818181C1810721018270470F
:104680000021018041808180C18002218160002160
:104690008181704721B1028842F04002028004E02B
:1046A00002884FF6BF731A400280704721B1828B97
:1046B00042F48062828304E0828B4FF6FF331A401B
:1046C0008283704702884FF2FF731A40028002888B
:1046D0000A4302807047B1F5804F04D1028842F44A
:1046E0008042028004E002884BF6FF731A40028089
:1046F00070474FF6FF62914204D0028842F4807204
:10470000028004E002884FF6FF631A40028070477F
:1047100021B1828842F00402828004E082884FF650
:10472000FB731A408280704721B1828842F01002E8
:10473000828004E082884FF6EF731A4082807047CF
:1047400030B500220023848B4FF240052C40848337
:1047500002240484828B0C88B4F5007F01D00C887D
:1047600014B94FF4807308E00C88B4F5407F03D08F
:104770000C88B4F5807F00D100238C888D892C4370
:104780004D882C431C4344F400642243828330BD93
:104790000146888970478181704721B1028842F4BF
:1047A0000052028004E002884DF6FF731A40028036
:1047B0007047018841F48051018070470246002013
:1047C000012901D0108B00E0908A70470146088AC9
:1047D00070471AB183880B43838002E083888B4340
:1047E0008380704730B5002400230C110125A540BB
:1047F000ABB2AAB185881D43858014E0003001402A
:1048000000380040003C00400034014000500140AE
:10481000005401400838024000127A000024F400DD
:1048200085889D43858030BD0246002013890B405A
:104830000BB1012000E000207047CA43028170479D
:10484000F0B50246002000240023002501F00F07E8
:104850000126BE40B4B20B1101269E40B3B2968829
:1048600006EA03051689264016B10DB1012000E0C5
:104870000020F0BD10B5002201F00F040123A34079
:104880009AB2D343038110BD0E49086070470D49A9
:10489000486070470B49886070474AF6AA2009496A
:1048A000086070474CF6CC400649086070470146E6
:1048B0000020044AD2680A400AB1012000E000202A
:1048C000704700000030004010B50121C802FCF71D
:1048D000CEFC00214FF40060FCF7C9FC10BD0021A4
:1048E0006C4A116847F6FF629143027D83681A4360
:1048F00043681A43C3681A4303681A4303691A4397
:104900001143644A116070470021017501604160E4
:104910008160C160016170475F49086070475D490F
:10492000091F086070475B48001F006800F0030023
:1049300070470021574B1B1D02681A601A1D116831
:104940006FF30A01D0E901231A43C3681A430369CC
:104950001A4311434F4A0832116070470021016029
:1049600041608160C160016170474A480C30006855
:10497000C0B2704708B5014600200090454810308D
:10498000084400900098006808BD0021414B203386
:1049900002681A601B1D42681A601A1D116821F016
:1049A000F701D0E902231A4303691A4343691A4302
:1049B0001143384A2832116070474FF0FF310160CF
:1049C000002141608160C1600161416170473148EF
:1049D0002C30006870472F487C30006870472D49A4
:1049E0007C31086070472B484430006870472B4981
:1049F000086070472949091D086070472749083138
:104A00000860704725490C310860704724490860E8
:104A100070472349091D0860704701218143204ADE
:104A20000832116070471E490C31086070471B49FD
:104A300014390860704739B1164A38321268024397
:104A4000144B38331A6006E0124A38321268824337
:104A5000104B38331A607047014600200D4A30323F
:104A600012680A400AB1012000E00020704709499D
:104A700034310860704701460020064A303212681F
:104A80000A400AB1012000E000207047014934319A
:104A900008607047042C0140A0802542A085254273
:104AA000AC812542016821F0010101600021016013
:104AB00041608160C160016121214161DB4988421F
:104AC00004D13D21D94A103A91608CE0D749183180
:104AD000884205D14FF47461D44A103A916082E063
:104AE000D2493031884205D14FF47411CF4A103A7F
:104AF000916078E0CD494831884205D14FF074612A
:104B0000CA4A103A91606EE0C8496031884204D1C7
:104B1000C749C64A103AD16065E0C4497831884235
:104B200004D1C449C14A103AD1605CE0BF49903118
:104B3000884204D1C049BD4A103AD16053E0BB4914
:104B4000A831884205D14FF03D51B84A103AD160A2
:104B500049E0BA49884204D13D21B84A083A116077
:104B600041E0B6491831884205D14FF47461B34A27
:104B7000083A116037E0B1493031884205D14FF42D
:104B80007411AE4A083A11602DE0AC4948318842B0
:104B900005D14FF07461A94A083A116023E0A74992
:104BA0006031884204D1A249A44A121F11601AE060
:104BB000A2497831884204D19E49A04A121F11604F
:104BC00011E09E499031884204D19B499B4A121FB3
:104BD000116008E09949A831884204D14FF03D5155
:104BE000964A121F1160704710B500220268944B5C
:104BF0001A40CC680B6823434C6923438C692343D8
:104C0000CC6923430C6A23434C6A23438C6A2343B5
:104C10004C6B23438C6B23431A430260426922F09E
:104C20000702D1E90B3423431A4342610B69436005
:104C30004B6883608B68C36010BD002101604160D8
:104C40008160C160016141618161C1610162416254
:104C50008162C162016341638163704721B102686F
:104C600042F00102026003E0026822F001020260E9
:104C7000704721B1026842F40042026003E002681A
:104C800022F400420260704721B1026842F0200223
:104C9000026003E0026822F0200202607047416077
:104CA00070470146486880B2704722B1036843F4F8
:104CB0000023036003E0036823F400230360016121
:104CC000704721B1026842F48022026003E002686A
:104CD00022F48022026070470AB1016100E0C160E5
:104CE0007047014600200A6802F400220AB1012040
:104CF00000E000207047014600200A6802F001022F
:104D00000AB1012000E000207047014600204A69F6
:104D100002F03800704730B503460A4600200024F0
:104D2000464DAB4202D24149103901E043491039A6
:104D300002F000550DB14C6800E00C68414D2C406C
:104D400004EA02050DB1012000E0002030BD02465A
:104D50003A4B9A4202D23548103801E037481038B1
:104D600001F000531BB1374B0B40C36002E0354BE1
:104D70000B408360704710B501F080034BB122B146
:104D8000436943F08003436103E0436923F08003F8
:104D9000436180290BD02AB1036801F01E0423432C
:104DA000036004E0036801F01E04A343036010BD28
:104DB00070B50246002000240025204EB24202D2E7
:104DC0001A4B103B01E01D4B103B1F4E0E4036B1FD
:104DD0001E2606EAD124166806EA040502E0566992
:104DE00006F0800501F000560EB15C6800E01C681A
:104DF000144E344004EA010616B10DB1012000E062
:104E0000002070BD02460D4B9A4202D2074810386E
:104E100001E00A48103801F000531BB1094B0B4068
:104E2000C36002E0074B0B40836070471060024094
:104E30003D000020400F002000003D201064024093
:104E40003F801CF07D0F7D0F3C0F3C0F002041493F
:104E50000860091D0860091D0860091D08603E48BA
:104E60003C4914310860704700213A498279002A90
:104E70003AD00A46126803689A430B461A600A1D24
:104E8000126803689A430B1D1A60027911440A687C
:104E900003681A430A602F4A0832126803689A436B
:104EA0002C4B08331A601A1D126803689A43294B69
:104EB0000C331A604279102A0ED11A1F1268036847
:104EC0001A43244B08331A601A1D126803681A43E8
:104ED000204B0C331A600DE01E49427911440A68D8
:104EE00003681A430A6005E0027911440A680368FE
:104EF0009A430A6070470021016001710C214171E1
:104F00000021817170471349103109680143114A2A
:104F1000103211607047014600200E4A14321268A8
:104F20000A400AB1012000E000207047094914310D
:104F30000860704701460020064A143212680A4091
:104F40000AB1012000E000207047024914310860D6
:104F500070470000003C0140FFFF7F0008B5684635
:104F600002F097F908BD08B5684602F0DCF908BD03
:104F700038B504466A460821204608F0A5F938BD30
:104F800010B542480078012805D102F0C8F808F0B1
:104F900027FC02F0D5F810BD70B504466FF0040090
:104FA000FBF774FD2046E11704EB5171C1F3C70113
:104FB000374A1170E11704EB5171CD103548006884
:104FC0003549B1FBF0F04543324800684FF47A713F
:104FD000B1FBF0F0314908804FF0E020006940F06B
:104FE00002004FF0E021086108464561006940F089
:104FF0000100086170BD2DE9F047074600264FF01B
:10500000E020D0F814902248007807FB00F8FFF762
:10501000A5FF4FF0E020856911E04FF0E0208469A2
:10502000AC420CD0AC4202D2281B064403E0A9EBF0
:105030000400284406442546464500D300E0ECE73A
:1050400000BFFFF790FFBDE8F08770B504460F483A
:105050000078A0B11248007888B9104800888442CE
:1050600006DB0E48008894FBF0F52846FFF780FF2A
:105070000A48008894FBF0F100FB114084B24FF421
:105080007A7104FB01F0FFF7B6FF70BD69000020E4
:10509000280000209C63010840420F002A000020E5
:1050A00068000020014600BF704700BFAA4A12886E
:1050B00002F04002002AF9D0C2B2A74B9A80704792
:1050C00010B588B0044601210846FCF721F80121FB
:1050D0001020FCF777F807220921A048FBF705FE0E
:1050E00007220A219D48FBF700FE4FF4C06006909E
:1050F00002208DF81C008DF81D0000208DF81E0088
:1051000001208DF81F0006A99448FBF763FD029467
:105110000020ADF80C00ADF80E00ADF81000ADF8B1
:1051200014000C20ADF8120002A98B48FCF7ABF973
:1051300001218948FCF72FFA40218748FCF713FB2F
:10514000012240F225518448FCF7DBFA25208DF836
:10515000040003208DF805008DF8060001208DF86D
:10516000070001A8FBF745FC08B010BD10B57C484E
:105170000088C0F30D037B4A04217BA00BF05CFD8B
:105180000446002C6DDD76480088C0F30D0104F163
:105190000B00814265DB7349401E085C3E2860D1EC
:1051A0000846005D0007000E71490870601C84B25B
:1051B000084600786B49095D01F00F0108436C490E
:1051C0000870601C84B26748005D0007000E4870DC
:1051D000601C84B2084640786249095D01F00F0105
:1051E000084363494870601C84B25E48005D000754
:1051F000000E8870601C84B2084680785949095DA9
:1052000001F00F0108435A498870601C84B2554868
:10521000005D0007000EC870601C84B20846C078AC
:105220005049095D01F00F0108435149C870601CE5
:1052300084B24C48005D0007000E0871601C84B207
:10524000084600794749095D01F00F0108434849C4
:105250000871601C84B201204649087046A010F015
:10526000ABFA10BD70B53E480088C0F30D033D4A4F
:10527000042148A00BF0E0FC0446002C1EDD384859
:105280000088C0F30D0104F10D00814216DB3549A1
:10529000401E085C3E2811D1002507E03148005D22
:1052A0003E494855601C84B2681C85B20C2DF5DB64
:1052B00001203B4908703BA010F07EFA70BD10B58C
:1052C000FFF754FFFFF7CEFF10BD10B501F027FF29
:1052D00040F225512048FCF74FFA002839D01E48EB
:1052E000FCF788F9C4B21E48008800F4004080BB77
:1052F0001B48008800F4804088B10A2C03D00020AD
:105300001749088025E01648008840F400401449F9
:105310000880FFF7D4FF00201149088019E00D2C08
:1053200006D10F48008840F480400D49088010E005
:105330000B480088C0F30D000A490C540848008847
:10534000401C0749088008460088C72801DD002066
:10535000088001F0F5FE10BD001001400000024081
:10536000300000205C4B002069643D3C00000000E0
:1053700032000020000000207265637620646576AC
:1053800069636520696420737563636573730D0ACF
:1053900000000000736E3D3C00000000244C002023
:1053A000010000207265637620646576696365207C
:1053B000736E20737563636573730D0A00000000DC
:1053C0001FB56846FBF7D3FD019804B010BD10B5BA
:1053D000FFF7F6FF04461848006840F08070164951
:1053E00008600020154948600846006840F0010048
:1053F0000860204600F0B7F810BD104948687047B3
:105400002DE9F0478246FFF7DBFF4FF000098046A9
:105410000B4A00234046494610F057F906463246EB
:105420000B465046002110F050F904460D46204628
:105430002946BDE8F0870000FCED00E0001000E028
:1054400040420F0010B5002400BF00BF00F054F927
:10545000044600BF00BF1021A24800F0D4FA00BFEC
:1054600000BF204600F04CF900BF00BF10BD10B5D2
:10547000FFF7E8FF10BD10B500209B490860FFF75B
:10548000A6FF10BD10B5FFF7F6FFFFF7F0FF10BD48
:1054900000BFFEE770B505460C46002614B900BFF4
:1054A000FFF7F6FF15B90A20208070BD00BF00BFCE
:1054B00000F022F9064600BF00BF102289492846A5
:1054C00000F058FF00BF00BF304600F019F900BFE0
:1054D00000BF0020208000BFE7E72DE9F04105462E
:1054E0000C46002714B900BFFFF7D2FF1DB90A20F0
:1054F0002080BDE8F0811021284600F023FF0646F9
:10550000102E15D200BF00BF00F0F6F8074600BF0E
:1055100000BF10222946734800F02CFF00BF00BFD7
:10552000384600F0EDF800BF00BF0020208002E008
:105530004FF47A70208000BFDBE710B5FFF75DFF06
:105540000446204610BD704700B5014611B900BFA2
:10555000FFF79EFF644A106808B1002201E04FF493
:10556000FA620A8000BD60490860704770B5054660
:10557000284600F0CCF80446183C204670BD70B5B3
:105580000546284600F0C3F80446103C204670BD8E
:1055900070B50546284600F0BAF8044600BF20461C
:1055A00070BD30B502460B464FF0FF350024AD1AF2
:1055B0009C4127D24FF0FF352C0CAD1A9C410FD2E5
:1055C0004FF0FF352C0AAD1A9C4103D2190E474CFF
:1055D000605C45E0190C454C645C04F108003FE058
:1055E0004FF0FF35FF24AD1A9C4105D2190A3F4CFC
:1055F000645C04F1100033E019463C4C645C04F137
:1056000018002DE04FF6FF750024AD1A9C4115D20D
:105610006FF07F450024AD1A9C4107D2140E44EA76
:105620000321324C645C04F1200019E0140C44EABC
:1056300003412E4C645C04F1280011E0FF25002496
:10564000AD1A9C4107D2140A44EA0361274C645CFA
:1056500004F1300004E01146244C645C04F138008D
:1056600030BD70B504460CB9082070BD204600F06E
:1056700051F805462846F8E770B504460CB91020E5
:1056800070BD204600F046F805462846F8E770B59C
:1056900004460CB9202070BD204600F03BF80546BA
:1056A0002846F8E72DE9F04304460D46002184EA38
:1056B00001006940084302D14020BDE8F083E24385
:1056C000E843521C40F1000102EA040601EA050722
:1056D00030463946FFF765FF8046C8F13F09484626
:1056E000EBE70000304C002038000020A4610108E6
:1056F00072B6704762B67047EFF3108072B67047AB
:1057000080F31088704730BF704720BF7047B0FAF1
:1057100080F0704790FAA0F0B0FA80F0704790FAED
:10572000A0F070470146412903DB5A2901DC012220
:1057300000E00022012A08D0612903DB7A2901DC7C
:10574000012200E00022012A01D1012200E0002212
:10575000104670470146412903DB5A2901DC01222A
:1057600000E00022012A08D0612903DB7A2901DC4C
:10577000012200E00022012A01D1012200E00022E2
:10578000012A08D0302903DB392901DC012200E09D
:105790000022012A01D1012200E0002210467047B8
:1057A0000146612903DB7A2901DC012200E00022A5
:1057B000104670470146412903DB5A2901DC0122CA
:1057C00000E00022104670470146302903DB3929EA
:1057D00001DC012200E0002210467047014630291A
:1057E00003DB372901DC012200E00022104670476C
:1057F0000146302901DB392907DD412901DB462932
:1058000003DD612903DB662901DC012200E00022BF
:10581000104670470146202901D0092901D10122F3
:1058200000E00022104670470146202909D00D29CA
:1058300007D00A2905D00C2903D0092901D00B294A
:1058400001D1012200E000221046704701462029C4
:1058500003DB7E2901DC012200E0002210467047B4
:105860000146212903DB7E2901DC012200E0002220
:10587000104670470146202903DB7E2901DC012206
:1058800000E00022012A35D1202909D00D2907D0B6
:105890000A2905D00C2903D0092901D00B2901D1EF
:1058A000012200E000222ABB412903DB5A2901DC46
:1058B000012200E00022012A08D0612903DB7A29B5
:1058C00001DC012200E00022012A01D1012200E0D6
:1058D0000022012A08D0302903DB392901DC01220A
:1058E00000E00022012A01D1012200E000220AB9D1
:1058F000012200E000221046704701464AB2002A09
:1059000001DB1F2901DD7F2901D1012200E00022F6
:10591000104670470146412903DB5A2901DC012268
:1059200000E00022012A02D101F1200200E00A4633
:10593000D0B270470146612903DB7A2901DC0122DC
:1059400000E00022012A02D1A1F1200200E00A4673
:10595000D0B27047F0B504460B462046FFF7EAFF89
:1059600005461846FFF7E6FF0646B54201D101207D
:1059700000E0002007463846F0BD0000FC48FD4925
:1059800001600146416000218160C16001614161A7
:105990008161C16101620163C1624162F649816353
:1059A000C1634FF48061016441640146F34A1160B0
:1059B00070472DE9F04105460B4694460027002428
:1059C00002E03F021F43641C042CFAD3604605F03A
:1059D0000306294646B1344603E001F8013B401E68
:1059E000641C08B1042CF8D30A4601E080C2001FF1
:1059F0000428FBD2114602E001F8013B401E0028BA
:105A0000FAD1BDE8F08130B505460C4622460021AA
:105A10002846FFF7CEFF30BD2DE9F04F85B0074691
:105A20008846914646463D46AE4207D94A464146DB
:105A3000384601F01DF905B0BDE8F08F4C4607EB84
:105A40000900451E08EB0900461EA81B0490049897
:105A5000042834D305F00300029006F003010191FD
:105A6000DDE90110884201D1012000E00020009012
:105A70000098012823D10298032810D0029840B240
:105A8000039008E016F8010905F80109641E03985F
:105A9000401E40B2039014B103980028F2DAA5F139
:105AA000030AA6F1030B04E05BF804094AF80409B1
:105AB000241F042CF8D20AF103050BF1030604E0BD
:105AC00016F8010905F80109641E002CF8D100BF81
:105AD000B1E72DE9F84F80468946154615B90120F2
